:100000000C942A000C943F000C943F000C943F0089
:100010000C943F000C943F000C943F000C943F0064
:100020000C943F000C943F000C943F000C943F0054
:100030000C943F000C943F000C943F000C943F0044
:100040000C943F000C943F000C943F000C943F0034
:100050000C943F0011241FBECFE5D8E0DEBFCDBF1A
:1000600010E0A0E6B0E0E2EBFBE002C005900D92EC
:10007000AC38B107D9F70E940A050C94D7050C9447
:1000800000008B3269F02CF48A3239F090E080E085
:1000900008958D3229F08F32C9F782E090E00895FB
:1000A00081E090E008953F924F925F926F927F922D
:1000B0008F929F92AF92BF92CF92DF92EF92FF9278
:1000C0000F931F93CF93DF93CDB7DEB764970FB62F
:1000D000F894DEBF0FBECDBF7B013C01D12CC12CFB
:1000E0000FEF1FEF90E2492EF30151903F01F7010E
:1000F000EC0DFD1D51102CC00F5F1F4FCE0101965E
:10010000DC01A00FB11F20E2A817B90709F062C0F7
:10011000000F111F0E0D1F1DC00ED11EF601108203
:1001200064960FB6F894DEBF0FBECDBFDF91CF91BE
:100130001F910F91FF90EF90DF90CF90BF90AF9005
:100140009F908F907F906F905F904F903F90089519
:1001500080ED850D8A3028F48FEFC81AD80A5082B6
:10016000C3CF852D8D7F8D3229F086ED850D8230B0
:1001700008F0BACF4082EFEFCE1ADE0A5701AC0C7E
:10018000BD1C6501CE18DF080F3F100789F0E1E0C4
:10019000F0E0EC0FFD1FE00FF11F3080832D0E9477
:1001A00041004C01852D0E944100881699064CF4AF
:1001B0000F5F1F4FE1E0F0E0EC0FFD1FE00FF11FBC
:1001C000CECF01501109F50130824182F2E0AF0E2D
:1001D000B11CD7CF20833E913183329695CFBF9209
:1001E000CF92DF92EF92FF920F931F93CF93DF9303
:1001F000CDB7DEB7A8970FB6F894DEBF0FBECDBF60
:100200006C0110E000E02FEF3FEF8AE0B82EF6011E
:10021000E00FF11F9081911117C0220F331FFE01D3
:10022000E20FF31F81819281A8960FB6F894DEBF8A
:100230000FBECDBFDF91CF911F910F91FF90EF9037
:10024000DF90CF90BF900895903219F40F5F1F4F49
:10025000DECF80ED890F50E040E08A3078F17901FF
:1002600041E0E41AF108F901EE0FFF1F41E050E010
:100270004C0F5D1FE40FF51F60817181F701EE0FD8
:10028000FF1FE40FF51F408151819B32B9F164F5E6
:100290009A32E1F1790152E0E51AF1080F5F1F4F40
:1002A0009701B5CFB49EB001B59E700D1124082EF4
:1002B000000C990BC097AC01460F571F8F010C190A
:1002C0001D09819190ED980F9A3060F32F5F3F4F99
:1002D000F901EE0FFF1F81E090E08C0F9D1FE80FEA
:1002E000F91F5183408393CF9D3269F09F3291F67D
:1002F000CA010E948D0571836083D0CF460F571FBE
:1003000051834083CBCF461B570BFACF649FC0016C
:10031000659F900D749F900D112491838083BECFB3
:10032000843018F5683008F5442319F04130F1F0B5
:10033000089521E030E001C0220F6A95EAF7209588
:10034000823061F0833071F0813021F08AB328234C
:100350002ABB089587B3282327BB089584B3282395
:1003600024BB089581B3282321BB089521E030E008
:1003700001C0220F6A95EAF7823051F0833059F0BC
:10038000813019F08AB3282BE3CF87B3282BE4CF31
:1003900084B3282BE5CF81B3282BE6CF843018F522
:1003A000683008F5442319F04130F1F0089521E058
:1003B00030E001C0220F6A95EAF72095823061F0A3
:1003C000833071F0813021F08BB328232BBB08954B
:1003D00088B3282328BB089585B3282325BB089517
:1003E00082B3282322BB089521E030E001C0220F10
:1003F0006A95EAF7823051F0833059F0813019F074
:100400008BB3282BE3CF88B3282BE4CF85B3282BDD
:10041000E5CF82B3282BE6CF843020F5662319F090
:10042000613079F00895823041F0833041F08130BD
:1004300011F01ABA089517BA089514BA089511BAA6
:100440000895823051F0833059F0813019F08FEFE8
:100450008ABB08958FEF87BB08958FEF84BB089503
:100460008FEF81BB0895843068F4823041F083308F
:1004700041F0813011F06BBB089568BB089565BBF6
:10048000089562BB0895843080F4683070F421E0F0
:1004900030E001C0220F6A95EAF7823051F08330D4
:1004A00051F0813021F089B32823822F089586B33B
:1004B000FBCF83B3F9CF80B3F7CF843050F46830EB
:1004C00040F4442321F0413021F40C94CE0140E06B
:1004D000FCCF0895CF93DF93843070F4683060F4DC
:1004E000D62FC82F41E00E94900141E06D2F8C2F44
:1004F000DF91CF910C94CE01DF91CF910895CF93EE
:10050000DF93843070F4683060F4D62FC82F41E058
:100510000E94900140E06D2F8C2FDF91CF910C94C1
:10052000CE01DF91CF910895843020F4683010F42B
:100530000C94430281E008951F93CF93DF9384309E
:1005400080F4683070F4142FD62FC82F40E00E943A
:100550009001412F6D2F8C2FDF91CF911F910C9423
:100560005D02DF91CF911F91089541E064E083E047
:100570000E94900141E065E083E00E94900141E02B
:1005800066E083E00E94900141E067E083E00E9422
:10059000900140E060E083E00E94900140E061E073
:1005A00083E00E94900140E062E083E00E949001BD
:1005B00040E063E083E00E94900141E060E083E07E
:1005C0000E945D0241E061E083E00E945D0241E043
:1005D00062E083E00E945D0241E063E083E00E940C
:1005E0005D0241E064E083E00E94CE0141E065E00D
:1005F00083E00E94CE0141E066E083E00E94CE01EC
:1006000041E067E083E00C94CE01AF92BF92DF92AD
:10061000EF92FF920F931F93CF93DF9324E7E22E85
:1006200020E0F22E10E000E0DD24DA94F701619181
:100630007F0140E083E00E94CE0190E7A92E90E088
:10064000B92ED0E0C0E0F50161915F0183E00E9426
:10065000430281112BC0CE0180599F4F5C01F501EF
:10066000608183E00E9443028823C9F3CC0FDD1F21
:10067000CC0FDD1FC05ADF4FC00FD11FD88041E023
:10068000F7013197608183E00E94CE010F5F1F4F19
:100690000430110559F68D2DDF91CF911F910F91E7
:1006A000FF90EF90DF90BF90AF9008952196C430F7
:1006B000D10549F6E4CFCF93C82F40E061E080E058
:1006C0000E94CE0140E062E080E00E94CE016C2FEB
:1006D00082E00E94330241E063E080E00E94CE01AC
:1006E0008FEC97E00197F1F700C0000040E063E075
:1006F00080E00E94CE018FEC97E00197F1F700C0F7
:100700000000CF91089541E063E080E00E949001F5
:1007100041E061E080E00E94900141E062E080E021
:100720000E94900161E082E00E940C022FEB8AEDB2
:1007300090E0215080409040E1F700C000008CE341
:100740000E945B038FEC97E00197F1F700C0000077
:100750008FE00E945B038FEC97E00197F1F700C0F8
:10076000000081E00E945B038FE99FE00197F1F7B1
:1007700000C0000086E00C945B03CF93C82F41E0DB
:1007800061E080E00E94CE0140E062E080E00E94F3
:10079000CE016C2F82E00E94330241E063E080E0F2
:1007A0000E94CE018FEC97E00197F1F700C00000A6
:1007B00040E063E080E00E94CE018FEC97E001977B
:1007C000F1F700C00000CF910895CF93C82F842F78
:1007D000662331F0613041F08C2FCF910C94BD0332
:1007E00080580E945B03F8CF8054FBCF882319F018
:1007F000813029F0089580E8860F0C945B0380EC2B
:10080000FBCF0F931F93CF93DF938C0188E0860F6C
:10081000880F880F880F0E945B03E801085F1F4F55
:1008200089910E94BD03C017D107D1F7DF91CF9105
:100830001F910F9108958CE00C945B03EF92FF924F
:100840001F93CF93DF937C01D62F142FC22F0E94CA
:100850001B046C2FC7010E940104612F8D2F0E9481
:10086000F6038C2FDF91CF911F91FF90EF900C94A6
:10087000BD03CF93DF93EC018991811103C0DF9118
:10088000CF9108950E94BD03F7CF81E00E945B03E2
:100890008FE99FE00197F1F700C000000895CF9322
:1008A000DF93EC0123E040E061E00E941E0480EC55
:1008B0000E945B0380E20E94BD0380E80E945B030C
:1008C00023E040E060E0CE010E941E042FEF82E5AD
:1008D00097E0215080409040E1F700C0000080E8A0
:1008E0000E945B0380E20E94BD0323E040E061E0E0
:1008F000CE01DF91CF910C941E04CF93DF9364E07F
:100900000E940104CFEC8C2F0E945B0384E00E94C4
:10091000BD03DAE0DC0F8D2F0E945B0384E00E94B0
:10092000BD032FE788E391E0215080409040E1F73C
:1009300000C00000C03C71F480EC0E945B0380E2C8
:100940000E94BD038AEC0E945B0380E2DF91CF919D
:100950000C94BD038C2F0E945B0380E20E94BD03B8
:100960008D2F0E945B0380E20E94BD03C150CBCF5C
:100970008F929F92AF92BF92CF92DF92EF92FF92AF
:100980000F931F93CF93DF93CDB7DEB764970FB666
:10099000F894DEBF0FBECDBF00E09E012F5F3F4F3A
:1009A00079012AE0822E912CA12CB12C61157105C0
:1009B0008105910511F5015010E00F5F1F4F0E0DDD
:1009C0001F1DF80182918F01805D0E94BD03E0161A
:1009D000F106B9F764960FB6F894DEBF0FBECDBF2F
:1009E000DF91CF911F910F91FF90EF90DF90CF900B
:1009F000BF90AF909F908F9008956701C00ED11C5B
:100A0000A50194010E94A105F6016083B901CA0104
:100A10000F5FCCCFCF93DF93CDB7DEB7C654D109EC
:100A20000FB6F894DEBF0FBECDBF0E9483030E94B5
:100A3000B5028AE0E8E7F0E0DE01DD9601900D9274
:100A40008A95E1F762E080E00E94F603CE01CD9640
:100A50000E9439042FEF39E688E121503040804070
:100A6000E1F700C000000E9445048EE17E019FE195
:100A7000E90EF11CF701282F11922A95E9F7FE01E2
:100A800031966F0111928A95E9F710E00EE10E940C
:100A900005038F3FE1F3833691F40E944504F7018B
:100AA000202F11922A95E9F710E03FE78AE196E0BE
:100AB000315080409040E1F700C00000E8CF8D3316
:100AC000F9F4F701E10FF11D1082B601C7010E9490
:100AD0005300C6010E94EF005C010E94450482E8B9
:100AE00090E00E943904B501BB0C880B990B0E9461
:100AF000B804F701202F11922A95E9F7F601D0CF1B
:100B00001D3198F6BB24B394B10EF701E10FF11D2E
:100B100080830E94BD031B2DC8CF97FB072E16F4C0
:100B2000009407D077FD09D00E94C30507FC05D0CB
:100B30003EF4909581959F4F0895709561957F4FF4
:100B40000895A1E21A2EAA1BBB1BFD010DC0AA1F0E
:100B5000BB1FEE1FFF1FA217B307E407F50720F026
:100B6000A21BB30BE40BF50B661F771F881F991FA1
:100B70001A9469F760957095809590959B01AC01EA
:100B8000BD01CF010895AA1BBB1B51E107C0AA1FDD
:100B9000BB1FA617B70710F0A61BB70B881F991F1E
:100BA0005A95A9F780959095BC01CD010895F894C8
:020BB000FFCF75
:100BB2003738392F3435362A3132332D63303D2BD5
:100BC200000102030405060743616C63756C6174DE
:0C0BD2006F72526573756C743A2000005D
:00000001FF
